:020000040000fa
:10000000f0ff032041120000471d00001b1e0000ee
:10001000af1e0000891f00008b1f000000000000c1
:10002000000000000000000000000000fb1a0000bb
:10003000571f000000000000fb1a0000fb1a000020
:10004000fb1a0000fb1a0000fb1a0000fb1a00005c
:10005000fb1a0000fb1a0000fb1a0000fb1a00004c
:10006000fb1a0000fb1a0000fb1a0000d91b00005d
:10007000fb1a0000fb1a0000491d0000fb1a0000db
:10008000fb1a0000fb1a0000fb1a0000fb1a00001c
:10009000fb1a0000fb1a0000fb1a0000fb1a00000c
:1000a000fb1a0000fb1a0000fb1a0000291c0000cc
:1000b000fb1a0000fb1a0000fb1a00004d1f000095
:1000c000fb1a0000fb1a0000fb1a0000fb1a0000dc
:1000d000fb1a0000fb1a0000fb1a0000fb1a0000cc
:1000e000fb1a0000fb1a00000000000000000000e6
:1000f00000000000fb1a0000fb1a0000fb1a0000c1
:10010000fb1a0000fb1a0000fb1a0000fb1a00009b
:10011000fb1a0000fb1a0000fb1a0000fb1a00008b
:10012000fb1a0000fb1a0000fb1a0000fb1a00007b
:10013000fb1a0000fb1a0000fb1a0000fb1a00006b
:10014000fb1a0000fb1a0000fb1a0000fb1a00005b
:10015000fb1a0000fb1a0000000000000000000075
:10016000000000000000000000000000000000008f
:100170000000000000000000fb1a0000fb1a000055
:10018000fb1a0000fb1a0000fb1a0000fb1a00001b
:1001900000000000fb1a0000fb1a0000fb1a000020
:1001a000fb1a0000fb1a0000fb1a0000fb1a0000fb
:1001b000fb1a0000fb1a0000fb1a0000fb1a0000eb
:1001c000fb1a0000fb1a0000fb1a0000fb1a0000db
:1001d000fb1a0000fb1a0000fb1a0000fb1a0000cb
:1001e000fb1a0000fb1a0000fb1a0000fb1a0000bb
:1001f000fb1a0000fb1a0000fb1a0000fb1a0000ab
:10020000fb1a00000000000000000000fb1a0000c4
:10021000fb1a0000fb1a0000fb1a0000fb1a00008a
:10022000fb1a0000fb1a0000fb1a0000fb1a00007a
:10023000fb1a0000fb1a0000fb1a0000fb1a00006a
:10024000fb1a0000fb1a0000fb1a0000fb1a00005a
:10025000fb1a0000fb1a0000fb1a0000fb1a00004a
:020000040000fa
:10026000f8b500bff8bc08bc9e467047591900009d
:10027000f8b500bff8bc08bc9e46704735190000b1
:020000040000fa
:10028000540300201c000000000000007003002048
:10029000100000000000000080030020100000009b
:1002a000000000009003002010000000000000008b
:1002b00070010020c000000000000000a00300202a
:1002c0000c00000000000000c0030020010000003e
:1002d00000000000c1030020010000000000000039
:1002e000c2030020010000000000000030020020d6
:1002f0006400000000000000c303002001000000b3
:100300000100000001000000ac0300200400000018
:1003100000000000f40200202000000000000000a7
:10032000140300202000000000000000340300201f
:100330002000000000000000b003002004000000c6
:1003400001000000940200209402002060000000e0
:10035000010000000000000014030020340300200e
:10036000f402002000000000000000000000000077
:10037000000000000000000000000000000000007d
:10038000000000000000000000000000000000006d
:10039000000000000000000000000000000000005d
:1003a000000000000000000000000000000000004d
:1003b00000000000040000206c01000001000000ab
:1003c00043000000000000000000000000000000ea
:1003d000000000000000000000000000000000001d
:1003e00043000000000000000000000000000000ca
:1003f00000000000000000000000000000000000fd
:1004000043000000000000000000000000000000a9
:1004100000000000000000000000000000000000dc
:100420004300000000000000000000000000000089
:1004300000000000000000000000000000000000bc
:100440004300000000000000000000000000000069
:10045000000000000000000000000000000000009c
:100460004300000000000000000000000000000049
:10047000000000000000000000000000000000007c
:100480004300000000000000000000000000000029
:10049000000000000000000000000000000000005c
:1004a000011e00004d1c0000000000006c0b00004d
:1004b000491f0000481f0000481f0000481f00009f
:1004c000481f0000481f0000481f0000481f000090
:1004d000481f0000481f0000ffffffffffffffff56
:1004e000ffffffffffff00000100415343494900a8
:1004f00000000000000000000000000000000000fc
:100500000000000000000000000041534349490082
:1005100000000000000000000000000000000000db
:10052000000000000000000000000000b4030020f4
:100530000400000000000000b803002004000000d8
:100540000000000000000020040000000000000087
:10055000bc030020040000000000000000000000b8
:1005600000000000222222222222222222222222f3
:020000040000fa
:100570002de9f04f0e4697b014461d46074618b1b8
:1005800083690bb901f024f8904b9e425cd17e68e0
:10059000b389190762d53369002b5fd00023099313
:1005a00020238df82930dff828a230238df82a3057
:1005b0004ff0ff392346984613f8012b0ab1252a3c
:1005c000f9d1b8eb040b0bd05b46224631463846d6
:1005d00001f0faf8013000f0ca80099b5b440993ee
:1005e00098f80030002b00f0c2800023cde905937d
:1005f00008f10108049307938df853304ff0010b75
:100600004446052214f8011b714800f031fd049b9b
:1006100078bbda0644bf20228df85320180744bf68
:100620002b228df8532098f800202a2a29d0079ae7
:10063000444600204ff00a0c214611f8013b303ba4
:10064000092b5bd908bb27e0624b9e4201d1be68f3
:100650009ee7614b9e4208bffe6899e731463846e7
:1006600000f07afb002899d04ff0ff3017b0bde8ba
:10067000f08fa0eb0a000bfa00f018430490a0469c
:10068000bee755f8042b002a01db079204e0524232
:1006900043f002030792049323782e2b0bd1637847
:1006a0002a2b30d155f8043b002b04f10204acbfd7
:1006b0000593cdf8149003222178484800f0d8fc27
:1006c00040b1464bc01a402303fa00f0049b034399
:1006d0000134049314f8011b41488df828100622b8
:1006e00000f0c6fc9df8283013b3732b45d08df86d
:1006f0005230012308930df152084be00cfb0232fb
:1007000001200c4698e700230134059319464ff069
:100710000a0c204610f8012b303a092a03d9002b85
:10072000c9d00591c7e70cfb012101230446f0e77e
:1007300008930df153082b4b009303aa334604a9e9
:10074000384600f094fa013011d0089b42463146f9
:10075000384601f039f8013009d0049b99072ed4ae
:10076000079b039a9342b8bf13465a1c2ad1b389f8
:100770005b063ff579af099878e755f8048b059a41
:100780000021404600f074fc10b1a0eb0800059079
:10079000059b089300238df85330cce701230df11e
:1007a00029023146384601f00ff80130dfd008f158
:1007b0000108079b039a9b1a9845efdbd0e74ff09f
:1007c0000008f6e7099a13440993f3e6140300209e
:1007d0009c1e000034030020f4020020a21e000032
:0807e000a61e0000c91700006d
:020000040000fa
:1007e8002de980489bb06422002101a801f07cfb20
:1007f800002001f095f900224949104601f054fb08
:1008080000224849022001f075f9002246490f20cc
:1008180001f070f90021454801f076fb444c454d44
:100828000fcd0fc40fcd0fc495e8070003c4227085
:1008380001f0f0fa01f0fafa3f4c0026dff8f080f8
:10084800dff800a13d4ddff8009147e026703e70cb
:100858004ff48043cbf81c30404601f04dfb034673
:1008680052464146304600f0e1fa2b7833b92378f6
:10087800002bfad03b78002bf7d0e7e72e7099f8d9
:1008880000307bbb012389f800304ff4806001f011
:10089800e3fa304601f0d6fadff8b0b099f8002054
:1008a80002eb8202234f0beb820207f12c0101a815
:1008b80001f07cf801a801f01ffb0346524601a98c
:1008c800304600f0b3fa99f8002002eb82020bebf5
:1008d800820207f15401404601f068f8184fdff82a
:1008e80070b0c4e7012b0ad0022b10d0032bd0d153
:1008f80089f800604ff4007001f0aefac9e70223ee
:1009080089f800304ff4006001f0a6fac1e703232c
:1009180089f800304ff4805001f09efab9e700bf23
:10092800e11e0000c91d0000d11e0000751e000058
:100938003002002060150000c1030020c003002021
:10094800c303002028040043c20300202c17000022
:0409580000800041da
:020000040000fa
:10095c008a892de9f041054610070c4658d44b689e
:10096c00002b05dc0b6c002b02dc0020bde8f081b9
:10097c00e66a002ef9d0002312f480522f682b6007
:10098c0032d0606da3895a0705d56368c01a636bb2
:10099c000bb1236cc01a00230246e66a216a284672
:1009ac00b047431ca38906d129681d292cd82a4a93
:1009bc00ca40d60728d500226260d9042269226079
:1009cc0004d5421c01d12b6803b96065616b2f60a3
:1009dc000029cad004f14403994202d0284600f001
:1009ec0091fb00206063c1e7216a01232846b047d0
:1009fc00411cc7d12b68002bc4d01d2b01d0162b4a
:100a0c0001d12f60b1e7a38943f04003a381ade787
:100a1c000f69002fa9d093070e6808bf4b690f60b0
:100a2c0018bf0023a6eb07088b60b8f1000f9cdd04
:100a3c0043463a46216aa66a2846b047002806dc97
:100a4c00a38943f04003a3814ff0ff308ee70744a6
:0c0a5c00a8eb0008e9e700bf0100402003
:020000040000fa
:100a6800384b00221a7403f50063374a9a621a4613
:100a7800536813f0100ffbd1344b4222c3f8842083
:100a88001a46d2f8843013f0400ffad0304b0022c7
:100a98009a6377225a631a46d36b13f0040ffbd17b
:100aa8002b4b022283f830201a46d36b13f0020f27
:100ab800fbd1274a136c03f00303032bfad1254b10
:100ac80001225a711a46d37813f0010ffbd01f4b3d
:100ad800214a1a621a46536813f0040ffbd11b4bc4
:100ae8001e4a5a621a46536813f0080ffbd1174b77
:100af8004122c3f890201a46d2f8903013f0400fe4
:100b0800fad0124b4122c3f8e4201a46d2f8e43056
:100b180013f0400ffad00d4b4122c3f80c211a46ae
:100b2800d2f80c3113f0400ffad00a4b6ff07f4225
:100b38001a6140f2ff725a61094a9a6102221a62e6
:100b4800704700bf0014004006013000001c004040
:100b580000100040000800400701010007010200e2
:040b680056880100aa
:020000040000fa
:100b6c000020202020202020202028282828282071
:100b7c002020202020202020202020202020202069
:100b8c0020881010101010101010101010101010d1
:100b9c0010040404040404040404041010101010c1
:100bac00101041414141414101010101010101018b
:100bbc0001010101010101010101010110101010dd
:100bcc00101042424242424202020202020202025d
:100bdc0002020202020202020202020210101010b1
:100bec0020000000000000000000000000000000d9
:100bfc0000000000000000000000000000000000e9
:100c0c0000000000000000000000000000000000d8
:100c1c0000000000000000000000000000000000c8
:100c2c0000000000000000000000000000000000b8
:100c3c0000000000000000000000000000000000a8
:100c4c000000000000000000000000000000000098
:100c5c000000000000000000000000000000000088
:010c6c000087
:020000040000fa
:100c6e002de9f04791461f468a680b69ddf8208012
:100c7e009342b8bf1346c9f8003091f84320064698
:100c8e000c4612b10133c9f800302368990642bff1
:100c9e00d9f800300233c9f80030256815f0060582
:100cae0007d104f1190ae368d9f800209b1aab4268
:100cbe0028dc94f843302268003318bf01239206d3
:100cce002dd404f1430239463046c047013020d0be
:100cde002368e568d9f8002003f00603042b08bf4b
:100cee00ad1aa36822690cbf25eae575002593426b
:100cfe00c4bf9b1aed184ff000091a344d451ad196
:100d0e00002008e00123524639463046c0470130e4
:100d1e0003d14ff0ff30bde8f0870135c3e7e1188e
:100d2e005a1c302081f84300224494f8451082f872
:100d3e0043100233c5e70123224639463046c047e9
:0a0d4e000130e6d009f10109d8e7f1
:020000040000fa
:100d5800324b70b51d6806460c4625b1ab6913b910
:100d6800284600f031fc2e4b9c420fd16c68b4f938
:100d78000c309ab215072cd4d00611d4092232604f
:100d880043f04003a3814ff0ff303ee0254b9c42e7
:100d980001d1ac68ebe7244b9c4208bfec68e6e75e
:100da800510712d5616b41b104f14403994202d055
:100db800304600f0a9f900236363a38923f02403d4
:100dc800a3810023636023692360a38943f0080398
:100dd800a38123694bb9a38903f42073b3f5007f7a
:100de80003d02146304600f06ffaa28912f00103c1
:100df8000cd00023a36063695b42a361236953b9e4
:100e0800b4f90c3013f08000bad170bd920758bf06
:100e18006369a360f2e70020f7e700bfb003002092
:0c0e28001403002034030020f40200201a
:020000040000fa
:100e340070b42d4c04eb0014247b002c4cd1050120
:100e4400294c2c4401262673284c645b14f4806fcf
:100e540018bfc918254c04eb001461600101234c30
:100e6400615a11f4006f27d01a4404eb00118a6010
:100e74001e4902018c188a5ac2f30122d3409bb244
:100e84006380030103f1824303f520431a6c42f0ab
:100e940002021a641a6c12f4fe4f20d193f8463001
:100ea40013f0400f1dd112490c69012202fa00f31c
:100eb40023430b61104610e00d49498811f4404f5b
:100ec40004d10a4901eb00118a60d1e71168074a8d
:100ed40002eb00129160cbe7002070bc7047012048
:100ee400fbe70120f9e700bf900300208003002006
:040ef40000a0004119
:020000040000fa
:100ef800f8b50e461446054618b183690bb900f0db
:100f080063fb274b9c4230d16c68a369a360a3891b
:100f1800190734d52369002b31d0b4f90c30f6b257
:100f28009a04374634d523692068c01a6369834216
:100f380004dc2146284600f0cbfb30bba368013b0c
:100f4800a36023685a1c22601e70636901308342c3
:100f580004d0a389db0706d50a2e04d121462846ea
:100f680000f0b6fb88b93846f8bd0e4b9c4201d15b
:100f7800ac68cae70c4b9c4208bfec68c5e7214641
:100f88002846fff7e5fe0028c7d04ff0ff37eae70d
:100f980043f40053a381236e23f400532366c2e76e
:0c0fa8001403002034030020f402002099
:020000040000fa
:100fb400f8b5cd1c25f0030508350c2d38bf0c25dc
:100fc400002d064601dba94203d90c23336000201f
:100fd400f8bd00f0daff21490a6814469cb9204f95
:100fe4003b6823b92146304600f0bcfe38602946f0
:100ff400304600f0b7fe431c23d10c233360304647
:1010040000f0c4ffe3e723685b1b17d40b2b03d961
:1010140023601c44256004e06368a2420cbf0b609b
:101024005360304600f0b2ff04f10b00231d20f0a2
:101034000700c21accd01b1aa350c9e72246646821
:10104400cce7c41c24f00304a042e3d0211a3046a8
:1010540000f088fe0130ddd1cfe700bfb4030020eb
:04106400b8030020ad
:020000040000fa
:08106800b1f90e1000f08cbe7e
:020000040000fa
:1010700001f0ff01102a2bdb10f0070f08d010f849
:10108000013b013a8b422dd010f0070f42b3f6d14d
:10109000f0b441ea012141ea014122f007047ff066
:1010a00000070023f0e80256083c85ea010586eabd
:1010b000010685fa47f5a3fa87f586fa47f6a5faf9
:1010c00087f68eb9eed1f0bc01f0ff0102f0070205
:1010d00032b110f8013b013a83ea010313b1f8d1b0
:1010e0000020704701387047002d06bf3546033891
:1010f000073815f0010f07d1013015f4807f02bfca
:10110000013015f4c03f0130f0bc0138704700bf1a
:020000040000fa
:1011100038b50546002945d051f8043c0c1f002b7a
:10112000b8bfe41800f033ff1f4a1368104633b904
:10113000636014602846bde8384000f029bfa34230
:101140000cd921686218934204bf1a685b68636017
:1011500004bf521822600460ece713465a680ab1d3
:10116000a242fad919685818a0420bd1206801444c
:10117000581882421960ddd1106852685a600144e3
:101180001960d7e702d90c232b60d3e72068211818
:101190008a4204bf11685268626004bf0918216066
:0c11a0005c60c7e738bd00bfb40300204e
:020000040000fa
:1011ac00214a137843f001031370536813f0010fb5
:1011bc00fbd11d490b7843f010030b704ff41063f7
:1011cc00cb611a4b0b6248f204030b6300224a6397
:1011dc000b61174b10221a721a75022083f820002b
:1011ec0083f82c2083f8382083f8442083f850208f
:1011fc0083f85c2083f8682083f8742083f88020bf
:10120c0083f88c2083f8982083f8a42083f8b020ee
:10121c000f2283f8bc200b7803430b700a465368eb
:10122c0013f0020ffbd17047002800400000909093
:04123c00700100201d
:020000040000fa
:1012400008b51b4b98471b4b9847eff3108172b6bc
:10125000194ad2f8883043f47003c2f88830bff3db
:101260004f8fbff36f8f01b962b6144c20236360b8
:1012700000f074f8124b23f07f030f4a9360114b78
:101280009847a36823f00103a3602346da6812f0ad
:10129000010ffbd1094b5a6842f004025a60012247
:1012a0009a60094b9847094b9847fff79dfafee76c
:1012b0008d1f00008d1f000000ed00e00060004168
:1012c000000000005d1800008d1f00008d1f000051
:020000040000fa
:1012d0008b8973b59d0706460c4607d501f1470378
:1012e0000b600b6101234b6102b070bd01ab6a461c
:1012f00000f0fcfa009905463046fff75bfe78b92e
:10130000b4f90c309a05efd423f0030343f0020341
:10131000a38104f147032360236101236361e3e7b1
:101320000d4bb362a389206043f08003a381009b2f
:101330006361019b20615bb1b4f90e10304600f08f
:1013400033fd28b1a38923f0030343f00103a381f4
:0c135000a3891d43a581c7e71d1f0000f5
:020000040000fa
:10135c001e4b1f4a9342f0b438bf002103d203f84e
:10136c00011b9342fbd11b4ad2e9000150ea010355
:10137c004ff0000610d09468034602f10c076cb9cc
:10138c0021b1014403f8016b9942fbd13a46d2e9f1
:10139c00000150ea0103eed1f0bc704759b101f1e4
:1013ac000c030c38801a1a443b461c1813f8015bca
:1013bc0025709342f9d111f0030318bf012303ebfd
:1013cc00910107eb81073a46e1e700bf00000020de
:0813dc00040000208002000063
:020000040000fa
:1013e4002de9f74380460e46144600f09bfd012884
:1013f4000ed1731efe2b0bd88df804600546002712
:101404000df10409af4213d1304603b0bde8f083b7
:10141400324604f1580301a9404600f0affb421cd8
:101424000546ecd1a38943f04003a3810646ebe7cc
:10143400a36817f80910013b002ba36004daa26922
:10144400934207db0a2905d023685a1c22601970cd
:101454000137d7e722464046fff74cfd431cf7d13e
:02146400e4e7bb
:020000040000fa
:021466007047cd
:020000040000fa
:1014680010b582b000230193030103f1824303f511
:10147800204393f84e30dbb20193019b13f0020f27
:101488000cd0010101f1824202f52042022382f8c8
:101498004e30124b0b4400221a7300e00122019bcc
:1014a80013f0010f0bd0040104f1824101f5204132
:1014b800012281f84e20094b234400211973074b60
:1014c80003eb00135c6834b10346044800eb0310d7
:1014d80081681046a04702b010bd00bf90030020ed
:020000040000fa
:1014e800f8b51b4b1e68b369074613b9304600f0c0
:1014f8006bf84836d6e90134013b03d53368dbb1d4
:101508003668f7e7b4f90c50a5b9124b2566c4e95b
:101518000055a560c4e90335c4e9055508222946e4
:1015280004f1580000f0e0fcc4e90d55c4e9125577
:101538002046f8bd6434dfe70421384600f006fb96
:10154800044630600028dbd10c233b60f0e700bf85
:08155800641f00000100ffff09
:020000040000fa
:10156000546f67676c696e67204c45442061742036
:10157000353030206d696c6c697365636f6e6473b0
:101580002072617465200d0a000000004c45442063
:10159000546f67676c696e67207261746520697348
:1015a000206368616e67656420746f2025730d0a7f
:1015b00000000000546f67676c696e67204c4544fb
:1015c0002061742025732072617465200d0a00006b
:020000040000fa
:1015d000836910b5044633bbc0e912330365124b6f
:1015e000124a1b688262984204bf01238361fff79d
:1015f0007bff60602046fff777ffa0602046fff783
:1016000073ff0022e0600421606800f04bf90122c2
:101610000921a06800f046f902221221e06800f0da
:1016200041f90123a36110bd641f00001d1f0000cc
:020000040000fa
:1016300010b40f4a00215160916011730d480e4b98
:1016400058630e4c9c634ff081345c610c4c1c64fd
:1016500040f20944048083f84510012111700322ef
:1016600083f84d2040f602721a805df8044b7047f3
:10167000900300208003002000a0004170030020a0
:04168000000f200037
:020000040000fa
:10168400124ad36823f4e0631b041b0c43f0bf63ca
:1016940043f40033d360bff35f8f62b60c4be02298
:1016a40083f80b234ff40061196083f80e234ff481
:1016b4008041196083f81b234ff00061196083f89f
:1016c4001f234ff000421a60704700bf00ed00e096
:0416d40000e100e051
:020000040000fa
:1016d80038b50b6905460c46dbb118b183690bb9ff
:1016e800fff772ff0c4b9c4209d16c68b4f90c30bf
:1016f8007bb121462846bde83840fff72bb9074b98
:101708009c4201d1ac68f1e7054b9c4208bfec68ec
:10171800ece7002038bd00bf14030020340300208c
:04172800f4020020a7
:020000040000fa
:10172c00353030206d696c6c695365636f6e647312
:10173c000000000031205365636f6e6400000000f0
:10174c00000000000000000032205365636f6e64df
:10175c0073000000000000000000000034205365fe
:10176c00636f6e6473000000000000000000000056
:020000040000fa
:10177c00104b01221a601a46936813f0010ffbd12b
:10178c000c4b4ff440721a6000225a6158690a4996
:10179c00014359610221d9635a649a64da641a6567
:1017ac005a659a6543f697221a641a469368002b79
:0c17bc00fcd1704700600141000f40406c
:020000040000fa
:1017c800f8b50e46096e8904074614460bd4d51899
:1017d800ac420dd0324614f8011b384600f072f9bd
:1017e8000130f5d10ee023f00303d518ac4201d146
:1017f800002009e0324654f8041b384600f0eefa9f
:0a1808000130f3d14ff0ff30f8bdbe
:020000040000fa
:0218120070471d
:020000040000fa
:10181400104b01221a801a46136913f0010ffbd1f1
:101824000c4b48f280121a804ff400721a621a4666
:10183400136913f0200ffbd1064b00225a621a469b
:10184400136913f0400ffbd1024b4ff480725a819d
:08185400704700bf00240040b2
:020000040000fa
:10185c0070b50d4d0d4c641ba4100026a64209d189
:10186c000b4d0c4cfef7f6fc641ba4100026a64294
:10187c0005d170bd55f8043b98470136eee755f895
:10188c00043b98470136f2e76c0200006c02000042
:08189c006c0200007002000064
:020000040000fa
:1018a400002310b50446c0e90033836081810366d8
:1018b400c281c0e90433836119460822583000f01c
:1018c40015fb054b6362054ba362054be362054bb5
:1018d4002462236310bd00bf251d00002d1a0000e3
:0818e400711c000069100000f6
:020000040000fa
:1018ec0070b50e46b1f90e10002990b014461d4685
:1018fc0007da00232b60b3891a0610d44ff48063e7
:10190c000ee001aa00f0f6f90028f2db029a02f4cc
:10191c007042a2f500535a425a412a60eee7402326
:08192c000020236010b070bd23
:020000040000fa
:1019340010b5054c237833b9044b13b10448aff305
:1019440000800123237010bd540300200000000018
:101954000000000008b5034b1bb103490348aff373
:10196400008008bd000000005803002000000000b3
:020000040000fa
:1019740070b5b9b115460ab1022801d9284670bd1f
:101984000a4b2bb108461146aff30080284670bdc0
:101994000c468e1814f8010bfff739ffb442f9d145
:1019a400284670bd0d46284670bd00bf00000000eb
:020000040000fa
:1019b4000eb410b59bb01daa6ff0004352f8041b7f
:1019c40001900590069303930024074b049301a808
:1019d4001994009200f056fa019b1c701bb0bde8ec
:0c19e400104003b0704700bf0802ffff76
:020000040000fa
:1019f0002de9f8438046894600f14804002614b9d1
:101a00003046bde8f883d4e90175013f01d524686b
:101a1000f5e7ab89012b07d9b5f90e30013303d0b7
:0c1a200029464046c84706436435eee7ff
:020000040000fa
:101a2c002de9f0411f468b89db0505460c46164611
:101a3c0005d502230022b1f90e1000f037f9a38965
:101a4c00b4f90e1023f48053a38132463b4628464a
:081a5c00bde8f04100f018b9eb
:020000040000fa
:101a64000b4b4ff480421a604cf204421a6101217c
:101a740083f84a10052283f8422083f84f2083f824
:101a8400352083f8d010022283f8b820704700bfb5
:041a9400008000418d
:020000040000fa
:101a98000a4b0b4a1a604ff622029a814ff48032a1
:101aa8005a601a46d369002bfcd1044a136843f0e4
:101ab80002031360d369002bfcd170470004004374
:041ac80004011040c5
:020000040000fa
:101acc009368013b002b10b4936008da9469a3422d
:101adc0001db0a2903d15df8044bfff707ba136841
:0e1aec00581c1060197008465df8044b7047d6
:020000040000fa
:021afa00fee705
:020000040000fa
:101afc0030b400eb4004084b03eb84031b7a8342a5
:101b0c0001d030bc7047044b4400251843f8251015
:0c1b1c0003eb85035a60f4e77001002021
:020000040000fa
:101b280008b500f0c9f9fff799fffef799fffff72d
:101b380096fcfff71ffefff777fdfff7a9fffff7fa
:0c1b480031fbfff763fefff799fd08bdbd
:020000040000fa
:101b540070b54a1e642555430e4605f17001fff722
:101b640027fa044640b10021c0e900160c30a060f9
:0c1b740005f1640200f0baf9204670bdd3
:020000040000fa
:101b8000f0b5094c85b005461e46d4f8e04009b9c9
:101b90000a4601a9a047431c01bf002333608a23e2
:0c1ba0002b6005b0f0bd00bf0400002069
:020000040000fa
:101bac00074a136843b10749184488428cbf4ff069
:101bbc00ff33106018467047034b1360f3e700bf08
:0c1bcc00bc030020c8050020c803002056
:020000040000fa
:101bd80008b5074a908980b2064b58604cf2ff312d
:101be80091811b6813b1034a9168984708bd00bfeb
:081bf80000240040a0030020be
:020000040000fa
:101c000070b569b115464ab140b90c468e1801202d
:101c100000f0a6f904f8010ba642f8d1284670bde1
:081c20000d46284670bd00bf0f
:020000040000fa
:101c280008b5064b4ff400425a61054bd3f8b4305f
:101c38001bb1034ad2f8b800984708bd00280040f5
:041c48007001002007
:020000040000fa
:101c4c0082b001b901a942b14bb113780b60127883
:101c5c00101c18bf012002b070471046fbe76ff054
:041c6c000100f8e794
:020000040000fa
:101c700010b50c46b1f90e1000f01ef8431ca389f4
:101c800015bf606523f4805343f48053a38118bfcc
:041c9000a38110bd5f
:020000040000fa
:101c940038b5074c054608461146002222601a460c
:101ca40000f06af9431c02d1236803b12b6038bdec
:041cb400000000200c
:020000040000fa
:101cb80038b5074c054608461146002222601a46e8
:101cc80000f054f9431c02d1236803b12b6038bdde
:041cd80000000020e8
:020000040000fa
:101cdc0038b5074c054608461146002222601a46c4
:101cec0000f044f9431c02d1236803b12b6038bdca
:041cfc0000000020c4
:020000040000fa
:101d000038b5074c0023054608461146236000f00d
:101d10002df9431c02d1236803b12b6038bd00bfed
:041d2000000000209f
:020000040000fa
:101d240010b50c46b1f90e10fff7d6ff0028abbf73
:101d3400636da3891b1823f48053acbf6365a3812f
:021d440010bdd0
:020000040000fa
:021d4600fee7b6
:020000040000fa
:101d480008b5054b04225a61044b9b6913b1034a39
:101d5800d069984708bd00bf0028004070010020e6
:020000040000fa
:101d680038b5064c0023054608462360fff71affde
:101d7800431c02d1236803b12b6038bd000000204a
:020000040000fa
:101d880038b5064c002305460846236000f0e8f8fd
:101d9800431c02d1236803b12b6038bd000000202a
:020000040000fa
:101da80038b5064c002305460846236000f0dcf8e9
:101db800431c02d1236803b12b6038bd000000200a
:020000040000fa
:101dc800044b01221a70044ad36c03f57a73d36466
:0c1dd800704700bfc00300200060014104
:020000040000fa
:101de400b2f90c3013f4005f06d143f4005393812d
:0c1df400136e43f400531366fff7f2babd
:020000040000fa
:101e000049b1ff2a85bf8a2303600a704ff0ff3073
:0a1e100098bf012070470846704794
:020000040000fa
:021e1a00fee7e1
:020000040000fa
:101e1c00044a138843f002031380136913f0020f72
:081e2c00fbd1704700240040c7
:020000040000fa
:101e3400044a136843f002031360936813f0020f1b
:081e4400fbd170470060014171
:020000040000fa
:101e4c00034b98611a46136913f0080ffbd17047c6
:041e5c00002400401e
:020000040000fa
:101e6000034b18621a46136913f0200ffbd1704719
:041e7000002400400a
:020000040000fa
:101e740010f4807f02d0024b01221a70704700bf19
:041e8400c103002076
:020000040000fa
:101e880013460a46014602480068fef76dbb00bfcc
:041e9800b003002073
:020000040000fa
:101e9c00232d302b2000686c4c0065666745464747
:011eac000035
:020000040000fa
:021eae00fee74d
:020000040000fa
:101eb000024b03eb001041608260704790030020ea
:020000040000fa
:101ec000024b40f204521a80704700bf00400041ac
:020000040000fa
:101ed000024ad36ca3f57a73d36470470060014162
:020000040000fa
:101ee00010b9024b01221a70704700bfc3030020d3
:020000040000fa
:101ef00002440346934200d1704703f8011bf9e7ff
:020000040000fa
:101f0000034613f8012b002afbd1181a0138704739
:020000040000fa
:0c1f1000014b186099607047a00300208e
:020000040000fa
:0c1f1c000149fff767bd00bfd9160000a7
:020000040000fa
:0c1f2800014b93f82801704704000020d2
:020000040000fa
:0c1f34004ff400534b600020704700bfca
:020000040000fa
:0b1f40004300504f53495800002e0092
:020000040000fa
:0a1f4c0008b50020fff78afa08bd6f
:020000040000fa
:021f5600fee7a4
:020000040000fa
:081f58004ff0ff30704700bf9d
:020000040000fa
:041f600000207047a6
:020000040000fa
:041f640094020020c3
:020000040000fa
:041f6800fff7f6bfca
:020000040000fa
:041f6c00fff7e2bfda
:020000040000fa
:041f700000f006b8bf
:020000040000fa
:041f740000f006b8bb
:020000040000fa
:041f7800fff742be6f
:020000040000fa
:041f7c00fff7fabcb5
:020000040000fa
:041f80000120704785
:020000040000fa
:041f84000020704782
:020000040000fa
:021f8800fee772
:020000040000fa
:021f8a00fee770
:020000040000fa
:021f8c0070479c
:020000040000fa
:021f8e0070479a
:020000040000fa
:021f9000704798
:020000040000fa
:0200000400807a
:044000003912003c35
:020000040000fa
:0200000400807a
:044004008000a82a66
:020000040000fa
:0200000400807a
:04400800ffffffffb8
:00000001FF
